:020000040800F2
:1000000000000220C9160008ED130008EF130008D5
:10001000F1130008F3130008F513000800000000B6
:100020000000000000000000000000006144000823
:10003000F71300080000000001450008DB3C000841
:1000400019170008191700081917000819170008D0
:1000500019170008191700081917000819170008C0
:1000600019170008191700081917000819170008B0
:1000700019170008191700081917000819170008A0
:100080001917000819170008191700081917000890
:100090001917000819170008191700081917000880
:1000A0001917000819170008191700081917000870
:1000B0001917000819170008191700081917000860
:1000C0001917000819170008191700081917000850
:1000D0001917000819170008191700081917000840
:1000E0001917000819170008191700081917000830
:1000F0001917000819170008191700081917000820
:10010000191700081917000819170008191700080F
:100110001917000819170008F91300081917000823
:1001200019170008191700081917000819170008EF
:1001300019170008091400081917000819170008F2
:1001400019170008191700081917000819170008CF
:1001500019170008191700081917000819170008BF
:1001600019170008191700081917000819170008AF
:1001700019170008191700081917000800000000D7
:08018000191700081917000807
:1001C00010B5054C237833B9044B13B10448AFF391
:1001D00000800123237010BDD8090020000000001A
:1001E000F484010808B5034B1BB103490348AFF37E
:1001F000008008BD00000000DC090020F484010834
:1002000053B94AB9002908BF00281CBF4FF0FF317D
:100210004FF0FF3000F074B9ADF1080C6DE904CE79
:1002200000F006F8DDF804E0DDE9022304B07047D1
:100230002DE9F047089D04468E46002B4DD18A4299
:10024000944669D9B2FA82F252B101FA02F3C2F1CC
:10025000200120FA01F10CFA02FC41EA030E94405D
:100260004FEA1C48210CBEFBF8F61FFA8CF708FB7E
:1002700016E341EA034306FB07F199420AD91CEB56
:10028000030306F1FF3080F01F81994240F21C8188
:10029000023E63445B1AA4B2B3FBF8F008FB1033D0
:1002A00044EA034400FB07F7A7420AD91CEB040405
:1002B00000F1FF3380F00A81A74240F207816444D5
:1002C000023840EA0640E41B00261DB1D44000235A
:1002D000C5E900433146BDE8F0878B4209D9002DBE
:1002E00000F0EF800026C5E9000130463146BDE848
:1002F000F087B3FA83F6002E4AD18B4202D38242B2
:1003000000F2F980841A61EB030301209E46002D60
:10031000E0D0C5E9004EDDE702B9FFDEB2FA82F2B5
:10032000002A40F09280A1EB0C014FEA1C471FFA13
:100330008CFE0126200CB1FBF7F307FB131140EAFA
:1003400001410EFB03F0884208D91CEB010103F1C7
:10035000FF3802D2884200F2CB804346091AA4B289
:10036000B1FBF7F007FB101144EA01440EFB00FE5D
:10037000A64508D91CEB040400F1FF3102D2A645C2
:1003800000F2BB800846A4EB0E0440EA03409CE761
:10039000C6F12007B34022FA07FC4CEA030C20FA0E
:1003A00007F401FA06F31C43F9404FEA1C4900FA2E
:1003B00006F3B1FBF9F8200C1FFA8CFE09FB1811AB
:1003C00040EA014108FB0EF0884202FA06F20BD91E
:1003D0001CEB010108F1FF3A80F08880884240F26E
:1003E0008580A8F102086144091AA4B2B1FBF9F0B2
:1003F00009FB101144EA014100FB0EFE8E4508D9AD
:100400001CEB010100F1FF346CD28E456AD9023831
:10041000614440EA0840A0FB0294A1EB0E01A14216
:10042000C846A64656D353D05DB1B3EB080261EB84
:100430000E0101FA07F722FA06F3F1401F43C5E95E
:10044000007100263146BDE8F087C2F12003D84094
:100450000CFA02FC21FA03F3914001434FEA1C47D6
:100460001FFA8CFEB3FBF7F007FB10360B0C43EAC8
:10047000064300FB0EF69E4204FA02F408D91CEB78
:10048000030300F1FF382FD29E422DD90238634476
:100490009B1B89B2B3FBF7F607FB163341EA034116
:1004A00006FB0EF38B4208D91CEB010106F1FF3865
:1004B00016D28B4214D9023E6144C91A46EA00465C
:1004C00038E72E46284605E70646E3E61846F8E6EE
:1004D0004B45A9D2B9EB020864EB0C0E0138A3E737
:1004E0004646EAE7204694E74046D1E7D0467BE718
:1004F000023B614432E7304609E76444023842E790
:10050000704700BF844641EA000313F003036DD136
:10051000403A41D351F8043B40F8043B51F8043BC6
:1005200040F8043B51F8043B40F8043B51F8043BCD
:1005300040F8043B51F8043B40F8043B51F8043BBD
:1005400040F8043B51F8043B40F8043B51F8043BAD
:1005500040F8043B51F8043B40F8043B51F8043B9D
:1005600040F8043B51F8043B40F8043B51F8043B8D
:1005700040F8043B51F8043B40F8043B51F8043B7D
:1005800040F8043B51F8043B40F8043B51F8043B6D
:1005900040F8043B403ABDD2303211D351F8043B0D
:1005A00040F8043B51F8043B40F8043B51F8043B4D
:1005B00040F8043B51F8043B40F8043B103AEDD2BC
:1005C0000C3205D351F8043B40F8043B043AF9D20D
:1005D000043208D0D2071CBF11F8013B00F8013BE0
:1005E00001D30B8803806046704700BF082A13D3ED
:1005F0008B078DD010F003038AD0C3F10403D21A05
:10060000DB071CBF11F8013B00F8013B80D331F838
:10061000023B20F8023B7BE7043AD9D3013A11F8B8
:10062000013B00F8013BF9D20B7803704B78437023
:100630008B78837060467047000000000000000067
:1006400090F800F06DE9024520F007016FF0000C12
:1006500010F0070491F820F040F049804FF00004BA
:100660006FF00700D1E9002391F840F000F1080095
:1006700082FA4CF2A4FA8CF283FA4CF3A2FA8CF3CD
:100680004BBBD1E9022382FA4CF200F10800A4FA34
:100690008CF283FA4CF3A2FA8CF3E3B9D1E9042388
:1006A00082FA4CF200F10800A4FA8CF283FA4CF3BF
:1006B000A2FA8CF37BB9D1E9062301F1200182FA79
:1006C0004CF200F10800A4FA8CF283FA4CF3A2FA7F
:1006D0008CF3002BC6D0002A04BF04301A4612BA8D
:1006E000B2FA82F2FDE8024500EBD2007047D1E990
:1006F000002304F00305C4F100004FEAC50514F01F
:10070000040F91F840F00CFA05F562EA05021CBFEF
:1007100063EA050362464FF00004A9E70000000009
:1007200001F0FF01102A2BDB10F0070F08D010F8A2
:10073000013B013A8B422DD010F0070F42B3F6D1A6
:10074000F0B441EA012141EA014122F007047FF0BF
:1007500000070023F0E80256083C85EA010586EA16
:10076000010685FA47F5A3FA87F586FA47F6A5FA52
:1007700087F68EB9EED1F0BC01F0FF0102F007025E
:1007800032B110F8013B013A83EA010313B1F8D109
:100790000020704701387047002D06BF35460338EA
:1007A000073815F0010F07D1013015F4807F02BF23
:1007B000013015F4C03F0130F0BC0138704700BF74
:1007C00081F0004102E000BF83F0004330B54FEA02
:1007D00041044FEA430594EA050F08BF90EA020F6F
:1007E0001FBF54EA000C55EA020C7FEA645C7FEA02
:1007F000655C00F0E2804FEA5454D4EB5555B8BF25
:100800006D420CDD2C4480EA020281EA030382EA95
:10081000000083EA010180EA020281EA0303362D27
:1008200088BF30BD11F0004F4FEA01314FF4801CFA
:100830004CEA113102D0404261EB410113F0004F0C
:100840004FEA03334CEA133302D0524263EB4303C3
:1008500094EA050F00F0A780A4F10104D5F1200E61
:100860000DDB02FA0EFC22FA05F2801841F10001BC
:1008700003FA0EF2801843FA05F359410EE0A5F190
:1008800020050EF1200E012A03FA0EFC28BF4CF0C1
:10089000020C43FA05F3C01851EBE37101F0004577
:1008A00007D54FF0000EDCF1000C7EEB00006EEB84
:1008B0000101B1F5801F1BD3B1F5001F0CD349080E
:1008C0005FEA30004FEA3C0C04F101044FEA445265
:1008D00012F5800F80F09A80BCF1004F08BF5FEAEC
:1008E000500C50F1000041EB045141EA050130BDCC
:1008F0005FEA4C0C404141EB0101013C28BFB1F5DE
:10090000801FE9D291F0000F04BF01460020B1FA28
:1009100081F308BF2033A3F10B03B3F120020CDAFB
:100920000C3208DD02F1140CC2F10C0201FA0CF0D9
:1009300021FA02F10CE002F11402D8BFC2F1200C3E
:1009400001FA02F120FA0CFCDCBF41EA0C019040F4
:10095000E41AA2BF01EB0451294330BD6FEA04043D
:100960001F3C1CDA0C340EDC04F11404C4F1200228
:1009700020FA04F001FA02F340EA030021FA04F33A
:1009800045EA030130BDC4F10C04C4F1200220FA91
:1009900002F001FA04F340EA0300294630BD21FACF
:1009A00004F0294630BD94F0000F83F4801306BF95
:1009B00081F480110134013D4EE77FEA645C18BF89
:1009C0007FEA655C29D094EA050F08BF90EA020F20
:1009D00005D054EA000C04BF1946104630BD91EA18
:1009E000030F1EBF0021002030BD5FEA545C05D11B
:1009F0004000494128BF41F0004130BD14F580045A
:100A00003CBF01F5801130BD01F0004545F0FE41CD
:100A100041F470014FF0000030BD7FEA645C1ABF02
:100A2000194610467FEA655C1CBF0B46024650EA39
:100A3000013406BF52EA033591EA030F41F4002165
:100A400030BD00BF90F0000F04BF0021704730B5EB
:100A50004FF4806404F132044FF000054FF00001C0
:100A600050E700BF90F0000F04BF0021704730B581
:100A70004FF4806404F1320410F0004548BF404256
:100A80004FF000013EE700BF42004FEAE2014FEAAB
:100A900031014FEA02701FBF12F07F4393F07F4F86
:100AA00081F06051704732F07F4208BF704793F089
:100AB0007F4F04BF41F40021704730B54FF460749C
:100AC00001F0004521F000411CE700BF50EA01029F
:100AD00008BF704730B54FF000050AE050EA010248
:100AE00008BF704730B511F0004502D5404261EBB8
:100AF00041014FF4806404F132045FEA915C3FF4F9
:100B0000D8AE4FF003025FEADC0C18BF03325FEA95
:100B1000DC0C18BF033202EBDC02C2F1200300FA46
:100B200003FC20FA02F001FA03FE40EA0E0021FA6B
:100B300002F11444BDE600BF70B54FF0FF0C4CF459
:100B4000E06C1CEA11541DBF1CEA135594EA0C0F0B
:100B500095EA0C0F00F0DEF82C4481EA030621EA46
:100B60004C5123EA4C5350EA013518BF52EA033581
:100B700041F4801143F4801338D0A0FB02CE4FF033
:100B80000005E1FB02E506F00042E0FB03E54FF063
:100B90000006E1FB03569CF0000F18BF4EF0010E5B
:100BA000A4F1FF04B6F5007F64F5407404D25FEA57
:100BB0004E0E6D4146EB060642EAC62141EA55510A
:100BC0004FEAC52040EA5E504FEACE2EB4F1FD0C4C
:100BD00088BFBCF5E06F1ED8BEF1004F08BF5FEACA
:100BE000500E50F1000041EB045170BD06F000467C
:100BF00046EA010140EA020081EA0301B4EB5C0429
:100C0000C2BFD4EB0C0541EA045170BD41F4801120
:100C10004FF0000E013C00F3AB8014F1360FDEBF45
:100C2000002001F0004170BDC4F10004203C35DA21
:100C30000C341BDC04F11404C4F1200500FA05F3A4
:100C400020FA04F001FA05F240EA020001F0004245
:100C500021F0004110EBD37021FA04F642EB0601BB
:100C60005EEA430E08BF20EAD37070BDC4F10C04E5
:100C7000C4F1200500FA04F320FA05F001FA04F2A9
:100C800040EA020001F0004110EBD37041F1000195
:100C90005EEA430E08BF20EAD37070BDC4F12005A0
:100CA00000FA05F24EEA020E20FA04F301FA05F208
:100CB00043EA020321FA04F001F0004121FA04F2B0
:100CC00020EA020000EBD3705EEA430E08BF20EA80
:100CD000D37070BD94F0000F0FD101F000464000BA
:100CE00041EB010111F4801F08BF013CF7D041EA3C
:100CF000060195F0000F18BF704703F00046520040
:100D000043EB030313F4801F08BF013DF7D043EA10
:100D10000603704794EA0C0F0CEA135518BF95EAC6
:100D20000C0F0CD050EA410618BF52EA4306D1D14D
:100D300081EA030101F000414FF0000070BD50EA6C
:100D4000410606BF1046194652EA430619D094EAF6
:100D50000C0F02D150EA013613D195EA0C0F05D1E0
:100D600052EA03361CBF104619460AD181EA030134
:100D700001F0004141F0FE4141F470014FF00000EC
:100D800070BD41F0FE4141F4780170BD70B54FF087
:100D9000FF0C4CF4E06C1CEA11541DBF1CEA135507
:100DA00094EA0C0F95EA0C0F00F0A7F8A4EB0504E9
:100DB00081EA030E52EA03354FEA013100F08880E0
:100DC0004FEA03334FF0805545EA131343EA1263A9
:100DD0004FEA022245EA111545EA10654FEA00265E
:100DE0000EF000419D4208BF964244F1FD0404F517
:100DF000407402D25B084FEA3202B61A65EB030573
:100E00005B084FEA32024FF480104FF4002CB6EB2F
:100E1000020E75EB030E22BFB61A754640EA0C00AF
:100E20005B084FEA3202B6EB020E75EB030E22BFEF
:100E3000B61A754640EA5C005B084FEA3202B6EB30
:100E4000020E75EB030E22BFB61A754640EA9C00EF
:100E50005B084FEA3202B6EB020E75EB030E22BFBF
:100E6000B61A754640EADC0055EA060E18D04FEA7D
:100E7000051545EA16754FEA06164FEAC30343EA1D
:100E800052734FEAC2025FEA1C1CC0D111F4801FEA
:100E90000BD141EA00014FF000004FF0004CB6E7E3
:100EA00011F4801F04BF01430020B4F1FD0C88BF82
:100EB000BCF5E06F3FF6AFAEB5EB030C04BFB6EB8D
:100EC000020C5FEA500C50F1000041EB045170BD80
:100ED0000EF0004E4EEA113114EB5C04C2BFD4EBAD
:100EE0000C0541EA045170BD41F480114FF0000E31
:100EF000013C90E645EA060E8DE60CEA135594EAAD
:100F00000C0F08BF95EA0C0F3FF43BAF94EA0C0FAF
:100F10000AD150EA01347FF434AF95EA0C0F7FF424
:100F200025AF104619462CE795EA0C0F06D152EA78
:100F300003353FF4FDAE1046194622E750EA41065C
:100F400018BF52EA43067FF4C5AE50EA41047FF46D
:100F50000DAF52EA43057FF4EBAE12E74FF0FF3CD2
:100F600006E000BF4FF0010C02E000BF4FF0010CA3
:100F70004DF804CD4FEA410C7FEA6C5C4FEA430C1C
:100F800018BF7FEA6C5C1BD001B050EA410C0CBF6B
:100F900052EA430C91EA030F02BF90EA020F0020CD
:100FA000704710F1000F91EA030F58BF994208BF34
:100FB00090422CBFD8176FEAE37040F001007047F1
:100FC0004FEA410C7FEA6C5C02D150EA013C07D148
:100FD0004FEA430C7FEA6C5CD6D152EA033CD3D093
:100FE0005DF8040B704700BF8446104662468C468D
:100FF0001946634600E000BF01B5FFF7B7FF0028C0
:1010000048BF10F1000F01BD4DF808EDFFF7F4FFE8
:101010000CBF012000205DF808FB00BF4DF808ED73
:10102000FFF7EAFF34BF012000205DF808FB00BF96
:101030004DF808EDFFF7E0FF94BF012000205DF8B8
:1010400008FB00BF4DF808EDFFF7CEFF94BF01206D
:1010500000205DF808FB00BF4DF808EDFFF7C4FF66
:1010600034BF012000205DF808FB00BF4FEA410CAF
:101070007FEA6C5C02D150EA013C0AD14FEA430C92
:101080007FEA6C5C02D152EA033C02D14FF00000CF
:1010900070474FF0010070474FEA410212F500120D
:1010A00015D211D56FF47873B3EB625212D94FEAAF
:1010B000C12343F0004343EA505311F0004F23FA99
:1010C00002F018BF404270474FF00000704750EAEE
:1010D000013005D111F0004008BF6FF000407047AB
:1010E0004FF00000704700BF08B502F07BFA0EE039
:1010F0000C480AF071FA01460B4811F00DF9102165
:101100000A4801F0F7FB4FF4FA7002F08AFE084B30
:1011100093F8313013F0010FEAD1064811F05EF96F
:10112000EDE700BFB40A002010850108001002405E
:10113000B00A00202085010808B5054A00210548AD
:1011400002F010FE044B186000F058FA08BD00BF12
:101150003C850108E9100008F409002030B58BB087
:101160000024059406940794089409940094224B53
:101170001A6B42F010021A631A6B02F0100200920E
:10118000009A01941A6B42F004021A631A6B02F07F
:1011900004020192019A02941A6B42F080021A63CF
:1011A0001A6B02F080020292029A03941A6B42F0C8
:1011B00001021A631A6B02F001020392039A04946B
:1011C0001A6B42F040021A631B6B03F04003049356
:1011D000049B0A4D22461421284601F085FB142366
:1011E0000593012306930794089405A9284601F066
:1011F00089FA0BB030BD00BF003802400010024039
:1012000000B583B001904FF6FF73012201A9034896
:1012100002F069F9019803B05DF804FB440A00206C
:1012200008B50268034B9A4200D008BD00F076FB77
:10123000FBE700BF0010004072B6FEE700B595B0B6
:101240003022002108A811F015F80023039304931D
:101250000593069307930193204A116C41F0805146
:101260001164126C02F080520192019A02931C4B9D
:101270001A6842F480421A601B6803F480430293A8
:10128000029B012308934FF48033099302220E92AC
:101290004FF480030F9304231093A821119112920D
:1012A000139308A801F030FB98B90F23039302238E
:1012B0000493002305934FF4A05306934FF48053F7
:1012C0000793052103A801F085FD20B915B05DF84D
:1012D00004FBFFF7B1FFFFF7AFFF00BF003802408C
:1012E0000070004008B500F0FFFAFFF7A7FFFFF716
:1012F00035FF00F095F902F0FDFCFFF71DFF02F04D
:101300000BFDFEE700B583B0002200920D4B596C37
:1013100041F480415964596C01F480410091009975
:101320000192196C41F0805119641B6C03F08053D9
:101330000193019B0F216FF0010000F027FB03B028
:101340005DF804FB0038024030B589B00446002344
:101350000193214B1A6C42F010021A641B6C03F0CB
:1013600010030193019B02A903A801F009FE069B4B
:10137000CBB901F0E5FD03461848A0FB03239B0C05
:10138000013B1748174A026040F2E732C2604360EF
:10139000002303618360836101F07CFF054630B167
:1013A000284609B030BD01F0CBFD4300E4E70C480E
:1013B00001F006FE05460028F2D1362000F01EFBA3
:1013C0000F2C01D90125EBE700222146362000F041
:1013D000DDFA054B1C60E3E70038024083DE1B4367
:1013E000F80900200010004008000020FEE7FEE79A
:1013F000FEE7FEE7FEE7704708B5024801F028FE69
:1014000008BD00BFF809002008B5024800F0DAFF67
:1014100008BD00BF980C002001207047024B162227
:101420001A604FF0FF307047F4E1002008B54FF02C
:10143000FF31FFF7F3FFFEE770B50C4616460025B7
:1014400006E0AFF30080214601F8010B01350C46A0
:10145000B542F6DB304670BD70B50C461646002529
:1014600004E014F8010BFFF7CBFE0135B542F8DBC1
:10147000304670BD4FF0FF3070474FF400534B6063
:1014800000207047012070470020704710B40346C9
:101490000C4A0D490D48006850B10C4800680344DF
:1014A000521A934208D8094A13605DF8044B7047FA
:1014B0000648074C0460F0E7064B0C221A604FF018
:1014C000FF30F2E70000022000040000400A002084
:1014D00040E20020F4E10020034AD2F8883043F4CF
:1014E0007003C2F88830704700ED00E0F0B58DB0B1
:1014F000802003F07FF9064658B9394810F06EFF96
:1015000007E0384810F06AFF642000F019FA002F55
:1015100029DA00220121022007F032FC071EF0DB4D
:1015200002238DF8213000240994502007F0F6FDA5
:10153000ADF822000A940B94102208A9384607F04F
:101540004DFAB0F1FF3F0AD00521384607F0C0FA46
:10155000B0F1FF3FD8D1244810F040FFD4E7234832
:1015600010F03CFFF0E7102303931AE022463146C7
:10157000284607F049FC002380223146284607F020
:1015800035FB044601461A4810F0C6FE002CEDDC7F
:10159000002D02DB284607F063FA2946154810F0B3
:1015A000BBFE03AA04A9384607F05CF9054605A866
:1015B0000AF012F80446BDF8120007F0AFFD02462B
:1015C0002B4621460C4810F0A7FE0122029204236C
:1015D000009302AB0621284607F01CFCCBE700BFB6
:1015E0007885010884850108A4850108948501088F
:1015F000DC850108F0850108B485010800B583B0D9
:10160000182300934FF4006300220349034810F0AD
:1016100031FD03B05DF804FBED14000800860108FD
:1016200008B50A480A4B03604FF4E13343600023D6
:101630008360C36003610C2242618361C36101F076
:1016400023FF00B908BDFFF7F7FDFBE7440A0020C0
:101650000010014000B589B0002303930493059363
:1016600006930793026803F1804303F588339A4297
:1016700002D009B05DF804FB0021019103F5943319
:101680005A6C42F010025A645A6C02F01002019235
:10169000019A02911A6B42F001021A631B6B03F06C
:1016A00001030293029B4FF4C0630393022304934C
:1016B000032306930723079303A9024801F022F8A6
:1016C000D7E700BF00000240DFF834D00D480E49D4
:1016D0000E4A002302E0D458C4500433C4188C428C
:1016E000F9D30B4A0B4C002301E013600432A242F1
:1016F000FBD3FFF7F1FE10F0EBFCFFF7F3FD7047B3
:101700000000022000000020D809002060C101086C
:10171000D80900203CE20020FEE788B1CA6892B1F7
:101720008A689AB10A69A2B10A6882604A68C2608E
:10173000CA6842618A6802610A6982610020704752
:101740004FF0FF3070474FF0FF3070474FF0FF30E1
:1017500070474FF0FF30704770B582B005460023E8
:1017600001934468002C49D1836803B19847202332
:101770002B60002602E06FF0040601341F2C0DD808
:101780006B6901AA1221204698470028F3DB019BD0
:1017900003F01F03A342F0D12C60002628681F2805
:1017A00025D836BB2B694FF400420021984700280A
:1017B00033DB6B6901AA00212868984700282FDBDA
:1017C000AB6998470446019B13F4004F11D0AB69F5
:1017D0009847001BB0F5FA7F0DD86B6901AA00216C
:1017E000286898470028EEDA6FF0040601E06FF0F1
:1017F00002067EB903E06FF00106FAE70026AB6946
:1018000098470446AB699847031BB3F5FA6FF9D9BB
:1018100001236B60304602B070BD6FF00306F9E73C
:101820006FF00406F6E710B582B00446002301937A
:10183000436901AA012100689847002839DB6369E0
:1018400001AA012120689847002835DB019B13F08D
:10185000040F34D0636901AA00212068984700284A
:1018600030DB019B13F4805F0CD103F40452B2F51A
:10187000045F2AD013F4005F29D113F4807F28D0AD
:1018800004201DE0636901AA1F21206898470028F1
:1018900021DB019B13F4805F20D003F01C03182B85
:1018A0001ED0082B1ED0142B01D0052008E00420E8
:1018B00006E06FF0040003E06FF0040000E0012098
:1018C00002B010BD6FF00400FAE70220F8E7032031
:1018D000F6E70520F4E76FF00400F1E70620EFE7F4
:1018E0000220EDE70320EBE708B50B4B1A6842F442
:1018F00000721A601A6842F480621A601A6842F430
:1019000080721A60032000F02FF80F20FFF71CFDF3
:10191000FFF7F8FC002008BD003C0240034A1168B4
:10192000034B1B780B441360704700BF880A0020EC
:1019300004000020014B1868704700BF880A00208F
:1019400038B50446FFF7F6FF0546B4F1FF3F02D075
:10195000044B1B781C44FFF7EDFF401BA042FAD359
:1019600038BD00BF04000020074AD36823F4E063B9
:101970001B041B0C000200F4E060034343F0BF6350
:1019800043F40033D360704700ED00E000B5194B1D
:10199000DB68C3F30223C3F1070CBCF1040F28BFBB
:1019A0004FF0040C03F1040EBEF1060F18D9033BEF
:1019B0004FF0FF3E0EFA0CFC21EA0C0199400EFAA2
:1019C00003F322EA0303194300280BDB0901C9B220
:1019D00000F1604000F5614080F800135DF804FB01
:1019E0000023E5E700F00F000901C9B2024B1954CA
:1019F000F4E700BF00ED00E014ED00E0002807DB95
:101A000000F01F02400901239340024A42F82030AF
:101A1000704700BF00E100E02DE9F04182B00746C9
:101A200000230193D0F8688008F1120350F8234096
:101A3000C56E012611E001A802F00AF9019B2BB343
:101A40002362A3600EE04FF48C43636011E003F166
:101A5000120257F82240013D9846CDB1C6B1236A23
:101A6000002BE8D0002EF8D0BB6D002BEBD10F4B34
:101A70006360BFF35F8F236843F00043236008F186
:101A80000103032BE3D9A8F10303E0E70026E4E711
:101A9000FB6EAB4207D03B6803F5805300229A608F
:101AA000C7F86880FD6602B0BDE8F081004600809E
:101AB0005079137943EA002307480B50D078937884
:101AC0001B0443EA0063507843EA0023127813436F
:101AD000024A8B50704700BF408002404480024061
:101AE00030B4002208E0C468DC6051F80C3043F4E4
:101AF000400341F80C300132032A1FD8C16802EBC1
:101B000082034FEAC30C01EBC303002441F80C40ED
:101B10005C609C60DC60941D40F8243051F80C40FF
:101B200044F4801441F80C40022ADCD8541C04EB25
:101B30008404C56805EBC404DC60D6E70023836237
:101B4000C268036803F580531A6130BC704700B562
:101B50004FF0000E03E00269DA600EF1010EBEF1F3
:101B6000030F29D801690EEB8E034FEAC30C01EB7A
:101B7000C303002241F80C205A609A60DA601A62AE
:101B80005A624FF0004241F80C204FF48C425A60E8
:101B90005A6822F000425A600EF1120240F82230D8
:101BA000BEF1020FD7D801690EF1010202EB8202E9
:101BB00001EBC202DA60D0E70023C36503668366E7
:101BC000C36683650269036803F58053DA605DF8D4
:101BD00004FBF0B5856A00EB85039B698C681E6881
:101BE000002EC0F2AF802E1D00EB8606F669002E97
:101BF00040F0AA8026689E605E6826F4FF5626F0B4
:101C00001F0667683E435E600E6816F0010F05D040
:101C10001E6826F440064F693E431E600E6816F0AB
:101C2000200F05D01E6826F040660F693E431E60F7
:101C3000096811F0040F03D0196841F080011960A0
:101C4000196841F080511960BFF35F8F196841F046
:101C5000004119602F4600264FF0010E29E0196857
:101C600021F08041196030E000EB8C039B6919681A
:101C700021F080511960196800292EDB0CF1040154
:101C800000EB8101C96941BB0EF1010EA468216816
:101C90009960596821F4FF5121F01F0167683943A9
:101CA00059600136BFF35F8F196841F00041196038
:101CB0006746A16851B3196821F000511960002AE4
:101CC000CDD0196841F08041196007F1010CBCF1D9
:101CD000030FC9D9A7F1030CC6E700EB8503996987
:101CE000002204E000EB8301896901321D46724540
:101CF0000AD2BFF35F8F0B6823F000430B606B1CAD
:101D0000032BEFD9EB1EEDE70220F0BDAAB11A6854
:101D100042F080421A601A6842F000521A60C26BA8
:101D20003B1D00EB8303DA61876272B6036C1E44CD
:101D30000136066462B60020E7E71A6822F08042A6
:101D40001A60E8E70220E0E70220DEE770B505460A
:101D50000C46026813683B491940237C002B60D174
:101D60004FF40003607C00285DD14FF480000343F2
:101D7000A0680343E07F43EA004360690343A07F18
:101D8000002852D14FF400500343207F43EA003330
:101D9000A0690343207943EA802394F820000028B7
:101DA00045D14FF400700343E07B43EAC013606AFF
:101DB000034394F8280043EA00130B4313602B6895
:101DC0001E680120FFF7BCFD2B681E6029688A6928
:101DD00022F0BE021204120CA36C1B0494F84C00F7
:101DE00038BB80200343206D034394F8550001283D
:101DF00021D00020034394F8560001281DD0002074
:101E0000034394F85400012819D0002003431343DE
:101E10008B612B689C690120FFF792FD2B689C6108
:101E200070BD00239EE70020A1E70020ACE7002062
:101E3000B9E70020D6E70820DCE70420E0E702202D
:101E4000E4E700BF0F8120FF70B505460C4602682D
:101E500002F580539B692B491940237B002B4DD100
:101E60004FF08063607B43EA4063607F002847D186
:101E70004FF480100343A07B43EA4053606903435F
:101E8000207F43EAC013A07F43EA8013206A034304
:101E900094F8240043EA80030B4302F580529361D7
:101EA0002B6803F580539E690120FFF749FD2B68DD
:101EB00003F580539E612279A36843EA4263A269D5
:101EC00013432269134394F8252043EAC213A26AFC
:101ED00043EA8203226813432A6843F4000302F5AD
:101EE000805213602B6803F580531C680120FFF7B4
:101EF00027FD2B6803F580531C6070BD0023B1E7FC
:101F00000020B7E7233FDEF870B5A4B006460125F0
:101F10008DF83C508DF83D5000240D948DF84B40C9
:101F20008DF84A508DF848408DF830508DF84C406F
:101F30008DF83B4014948DF854401D948DF87840F2
:101F40001F948DF882408DF880404FF480431093A9
:101F50004FF4006311938DF881400BA9FFF7F6FE53
:101F60008DF80C508DF80D508DF81D508DF80E50D9
:101F700005948DF81C408DF81E4008948DF824506F
:101F80008DF804504FF4803302934FF4800306938E
:101F90004FF4005304938DF825500A940094694639
:101FA0003046FFF751FF24B070BD10B582B0044633
:101FB00000230193036803F580539A6942F4801269
:101FC0009A61036803F580539B6901930120FFF731
:101FD000B7FC2368019A03F580539A6102B010BDE3
:101FE000002857D030B583B00446D0F88430002B99
:101FF00034D000230193284B5A6C42F480425A6437
:102000005B6C03F480430193019B244B5A6822F4D8
:1020100000025A605A68A1680A435A605B682368E4
:1020200003F580531A6842F001021A60FFF782FC40
:102030000546236803F580531B6813F0010F13D086
:10204000FFF778FC401BB0F5FA7FF2D90423C4F8FF
:102050008830E023C4F88430012019E02323C0F83D
:10206000843001F005FDC4E72046FFF74DFF204610
:10207000FFF736FD2046FFF76AFD62680021204623
:10208000FFF716FD0020C4F888001023C4F8843040
:1020900003B030BD012070470038024000380140D5
:1020A000F8B5D0F88430102B01D00120F8BD0446DB
:1020B0002325C0F88450012686650268D36B43F45B
:1020C0000273D3630268D2F80C3143F4003343F057
:1020D0006003C2F80C310268D2F8103143F40313E4
:1020E000C2F810310423C366FFF796FC2268136818
:1020F00043F00803136023681F683046FFF720FC95
:1021000023681F602268136843F004031360236888
:102110001F683046FFF714FC23681F602046FFF756
:1021200044FF236803F580539A6942F400529A6190
:10213000236803F580539A6942F002029A6122688B
:1021400002F58052D36943F4D03343F0C103D36125
:10215000C4F884500020A9E738B5D0F88430232B88
:1021600001D0012038BD0446C0F88430026802F571
:102170008052D36923F4D03323F0C103D3610368C1
:1021800003F580539A6922F400529A61036803F5BB
:1021900080539A6922F002029A610268136823F060
:1021A0000403136003681D680120FFF7C9FB23685F
:1021B0001D602046FFF7F9FE2268136823F008032C
:1021C000136023681D680120FFF7BAFB23681D60B8
:1021D000002308E003F1120254F822104A6842F08A
:1021E00000424A600133032BF4D90020A06510237C
:1021F000C4F88430B6E710B5044629B1D4F8843069
:10220000232B09D0012010BDD0F8883043F0010302
:10221000C0F888300120F6E74B6BE36301222046CB
:10222000FFF7D7FC38B1D4F8883043F00203C4F884
:1022300088300120E7E7BFF34F8FA36A0133A36221
:10224000032B01D9043BA362236803F58052526932
:1022500012F0040F08D003F5805304225A6123685A
:1022600003F5805300225A600020CCE72DE9F84F97
:10227000044689B18B46D0F88430232B72D1D0F834
:102280005C8008F1120350F82350C36EC3F1040AB6
:102290004FF000094F4638E0D0F8883043F0010392
:1022A000C0F8883001205EE02B6813F4007F02D074
:1022B00000232366636666692B6813F4807F07D06A
:1022C0002E68C6F30D46043E2B6823674FF00109C4
:1022D000AA682A62B3B204F1800104F17C0001F023
:1022E000DDFC236E01332366636E33446366002393
:1022F0002B6208F10103032B01D9A8F1030303F1B9
:10230000120254F82250013798462B68002B14DB38
:10231000574512D2B9F1000F0FD12B6813F4807F0B
:1023200003D0AB69A367EB6963672B6813F4007F85
:10233000BAD1E36F002BB7D1DBE7E36E1F44E7664A
:1023400037B9C4F85C80B9F1000F05D101200AE06B
:102350002046FFF761FBF4E7E36FCBF80030002085
:10236000E06700E00120BDE8F88FF8B50646056C8F
:10237000446C012702E0013404F00304EDB1E7B13D
:10238000013D231D06EB8303D8690028F3D0F268D2
:1023900004EB8403DB00D358002B01DA0027EDE7C0
:1023A00001F097FC231D06EB83030022DA61013460
:1023B00004F0030435647464E0E70020F8BD70475E
:1023C0007047000010B50446036803F58052526957
:1023D00012F0400F05D003F58052D26912F0400F81
:1023E00047D1236803F58052526912F0010F05D0DE
:1023F00003F58052D26912F0010F41D1236803F531
:102400008052526912F4004F28D003F58052D269ED
:1024100012F4004F22D0D4F8882042F00802C4F809
:10242000882003F58052526912F4005F31D003F521
:1024300080535A6922F07F4222F4010222F45F4263
:1024400022F0FF02C4F88C20DA6922F4C032DA618B
:10245000E023C4F88430204601F0D4FA23689A6B54
:1024600012F0080F1FD11A4B5B6913F4002F26D10D
:1024700010BD03F58053174A5A6101F0B3FAB0E773
:1024800003F580534FF001125A61204601F0B2FA71
:10249000B4E703F580535A6948F280610A40C4F8F2
:1024A0008C205961D7E7DB6A03F06003C4F89430ED
:1024B0002046FFF784FF0023C4F89430D3E7044B91
:1024C0004FF400225A612046FFF77AFFD0E700BFA1
:1024D000003C014040000100F8B505461E4600687A
:1024E000036903F01C03C9028CB244EA030194019E
:1024F00004F4F8640C4344F001040461FFF71AFA91
:10250000074601E02B681C6914F0010F07D0FFF7A4
:1025100011FAC01BB0F5803FF4D3012004E02B6812
:102520005B699BB233600020F8BD70B50546066854
:10253000306900F01C00C9028CB244EA0001940129
:1025400004F4F8640C4344F003049BB273612B68F9
:102550001C61FFF7EFF9064601E02B681C6914F0D7
:10256000010F07D0FFF7E6F9801BB0F5803FF4D3E9
:10257000012000E0002070BD002974D002681268BC
:10258000C2F3001281F828200268126802F060028B
:102590004A620268126812F4007F0CBF0122002216
:1025A00081F8202002681268C2F30042CA770268EC
:1025B000126812F4005F0CBF012200228A770268C1
:1025C0001268C2F300320A770268126802F40062ED
:1025D0008A610268126802F480424A6102681268E5
:1025E00012F4800F0CBF012200224A7402681268A4
:1025F00012F4000F0CBF012200220A740268126854
:10260000C2F3C012CA730268126802F460228A60C0
:1026100002681268C2F380220A7102689269C2F3EA
:10262000400281F854200268926912F0800F0CBFBA
:102630000122002281F84C200268926902F03002E7
:102640000A6502689269120C8A6402689269C2F390
:10265000800281F8562002689269C2F3C00281F8B4
:102660005520002070470120704751B108B5D0F8BF
:102670008430102B01D0012008BDFFF767FB00203C
:10268000FAE701207047000038B5054603681C6969
:1026900024F01C0400F04EFC104B0344104A9342FB
:1026A00004D244F008042B681C6138BD0D4B034470
:1026B0000D4A934202D844F00C04F4E70B4B034458
:1026C0000B4A9342EFD30B4B03440B4A934202D87D
:1026D00044F00404E7E744F01004E4E700D3CEFE3E
:1026E000C0E1E40040F1E9FD3F787D0100796CFC38
:1026F000005A6202001F0AFA7FF0FA02D0F88C003A
:102700007047000000230F2B00F2E48070B582B008
:1027100060E085685E000324B44025EA0405CC68C7
:10272000B4402C438460456825EA02054C68C4F334
:1027300000129A402A4342605AE0DC08083450F8FC
:10274000246003F0070295000F22AA4026EA020E39
:102750000A69AA4042EA0E0240F824205CE00722FF
:1027600000E0002202FA0EF22A4302345A4D45F8E4
:1027700024205A4A94686FEA0C0224EA0C054E6839
:1027800016F4801F01D04CEA0405544CA560E4689F
:1027900002EA04054E6816F4001F01D04CEA040555
:1027A0004E4CE560646802EA04054E6816F4003F8A
:1027B00001D04CEA0405494C6560246822404D680C
:1027C00015F4803F01D04CEA0402444C22600133EE
:1027D0000F2B7DD801229A400C6804EA020C32EAE1
:1027E0000404F4D14C6804F00304013C012C90D99A
:1027F0004A6802F00302032A09D0C4685D0003227C
:10280000AA4024EA02048A68AA402243C2604A68B5
:1028100002F00302022A90D004684FEA430E03221A
:1028200002FA0EF224EA02044A6802F0030202FAF3
:102830000EF2224302604A6812F4403FC7D00022E1
:102840000192274A546C44F480445464526C02F45C
:1028500080420192019A9C08A51C1F4A52F82550FB
:1028600003F003024FEA820E0F2202FA0EF225EA6B
:1028700002051C4A90423FF474AF02F58062904218
:102880001AD002F58062904218D002F58062904220
:1028900016D002F58062904214D002F58062904218
:1028A00012D002F58062904210D002F58062904210
:1028B0003FF455AF082255E7012253E7022251E7C2
:1028C00003224FE704224DE705224BE7062249E7A2
:1028D00002B070BD704700BF00380140003C0140AD
:1028E00000380240000002400AB1816170470904CB
:1028F00081617047436901EA030221EA030141EA69
:102900000241816170470000002800F0E08170B54D
:1029100082B00446036813F0010F3BD09F4B9B68C5
:1029200003F00C03042B2CD09C4B9B6803F00C038E
:10293000082B21D06368B3F5803F4FD0B3F5A02FAB
:1029400052D0964B1A6822F480321A601A6822F428
:1029500080221A606368002B50D0FEF7EBFF05461B
:102960008E4B1B6813F4003F14D1FEF7E3FF401BAE
:102970006428F5D90320B1E1884B5B6813F4800F1C
:10298000D8D0864B1B6813F4003F03D06368002B3C
:1029900000F09F81236813F0020F54D07F4B9B6897
:1029A00013F00C0F3ED07D4B9B6803F00C03082BFB
:1029B00033D0E368002B68D0794B01221A60FEF710
:1029C000B9FF0546754B1B6813F0020F54D1FEF793
:1029D000B1FF401B0228F5D903207FE16F4A13683D
:1029E00043F480331360B5E76C4B1A6842F48022DD
:1029F0001A601A6842F480321A60ABE7FEF79AFF59
:102A00000546664B1B6813F4003FC3D0FEF792FFE8
:102A1000401B6428F5D9032060E1604B5B6813F428
:102A2000800FC6D15D4B1B6813F0020F03D0E36823
:102A3000012B40F05081594A136823F0F8032169B3
:102A400043EAC1031360236813F0080F42D063699F
:102A50006BB3534B0122C3F8802EFEF76BFF054684
:102A60004E4B5B6F13F0020F34D1FEF763FF401B38
:102A70000228F5D9032031E1484A136823F0F8030E
:102A8000216943EAC1031360DDE7454B00221A6068
:102A9000FEF750FF0546414B1B6813F0020FD2D0E2
:102AA000FEF748FF401B0228F5D9032016E13C4BF6
:102AB0000022C3F8802EFEF73DFF0546374B5B6FC3
:102AC00013F0020F06D0FEF735FF401B0228F5D9A0
:102AD000032003E1236813F0040F77D02F4B1B6C06
:102AE00013F0805F33D1002301932C4B1A6C42F01A
:102AF00080521A641B6C03F080530193019B0125E3
:102B0000284B1B6813F4807F23D0A368012B34D09B
:102B1000052B38D0214B1A6F22F001021A671A6F69
:102B200022F004021A67A368002B3DD0FEF702FFD3
:102B300006461A4B1B6F13F0020F46D1FEF7FAFE42
:102B4000801B41F288339842F3D90320C6E0002568
:102B5000D6E7144A136843F480731360FEF7EAFE65
:102B60000646104B1B6813F4807FCED1FEF7E2FEC1
:102B7000801B0228F5D90320B0E0084A136F43F008
:102B800001031367CFE7054B1A6F42F004021A677F
:102B90001A6F42F001021A67C5E700BF0038024011
:102BA0000000474200700040FEF7C4FE0646524B4C
:102BB0001B6F13F0020F08D0FEF7BCFE801B41F222
:102BC00088339842F3D9032088E0EDB9A369002B3C
:102BD00000F08380484A926802F00C02082A51D023
:102BE000022B17D0454B00221A66FEF7A3FE0446BF
:102BF000414B1B6813F0007F42D0FEF79BFE001B89
:102C00000228F5D9032069E03B4A136C23F0805376
:102C10001364DBE7394B00221A66FEF78BFE05468C
:102C2000354B1B6813F0007F06D0FEF783FE401B78
:102C30000228F5D9032051E0E369226A1343626A4E
:102C400043EA8213A26A5208013A43EA0243E26A63
:102C500043EA0263284A5360284B01221A66FEF7B2
:102C600069FE0446244B1B6813F0007F06D1FEF773
:102C700061FE001B0228F5D903202FE000202DE083
:102C800000202BE0012B2BD01B4B5B6803F4800151
:102C9000E269914226D103F03F02216A8A4223D1A0
:102CA000616A47F6C0721A40B2EB811F1ED103F46D
:102CB0004031A26A5208013AB1EB024F18D103F039
:102CC0007063E26AB3EB026F14D1002006E00120CA
:102CD0007047012002E0012000E0002002B070BD3A
:102CE0000120FBE70120F9E70120F7E70120F5E7E4
:102CF0000120F3E70120F1E70038024000004742DD
:102D000008B5314B9B6803F00C03042B57D0082BFC
:102D100057D12D4B5A6802F03F025B6813F4800FC5
:102D20002AD0294B5968C1F3881C4FEA4C11B1EBEA
:102D30000C006EEB0E0E4FEA8E1343EA9063810196
:102D4000091A63EB0E03DB0043EA5173C90011EB70
:102D50000C0C43F10003590200234FEA4C2041EAD6
:102D6000DC51FDF74DFA184B5B68C3F301430133A7
:102D70005B00B0FBF3F025E0134B5968C1F3881CEE
:102D80004FEA4C11B1EB0C006EEB0E0E4FEA8E13B6
:102D900043EA90638101091A63EB0E03DB0043EA07
:102DA0005173C90011EB0C0C43F10003990200238D
:102DB0004FEA8C2041EA9C51FDF722FAD3E7034801
:102DC00000E0034808BD00BF0038024000127A004E
:102DD0000024F400002800F09B8070B50D460446E6
:102DE0004F4B1B6803F007038B4208D2CBB24C4A0F
:102DF0001370136803F007038B4240F08B80236845
:102E000013F0020F17D013F0040F04D0454A936853
:102E100043F4E0539360236813F0080F04D0414A51
:102E2000936843F4604393603E4A936823F0F00351
:102E3000A1680B439360236813F0010F32D06368DD
:102E4000012B21D09A1E012A25D9364A126812F088
:102E5000020F61D033498A6822F0030213438B606A
:102E6000FEF768FD06462F4B9B6803F00C03626873
:102E7000B3EB820F16D0FEF75DFD801B41F2883365
:102E80009842F0D9032042E0264A126812F4003F2B
:102E9000E0D101203BE0234A126812F0007FD9D133
:102EA000012034E01E4B1B6803F00703AB4207D937
:102EB000EAB21B4B1A701B6803F00703AB422DD11B
:102EC000236813F0040F06D0164A936823F4E053E6
:102ED000E1680B439360236813F0080F07D0114A91
:102EE000936823F46043216943EAC1039360FFF7C9
:102EF00007FF0C4B9B68C3F303130B4AD35CD8400A
:102F00000A4B18600A4B1868FEF71EFA002070BDC5
:102F1000012070470120FAE70120F8E70120F6E7D9
:102F2000003C02400038024060850108000000209B
:102F300008000020014B1868704700BF0000002007
:102F400008B5FFF7F7FF044B9B68C3F38223034ADE
:102F5000D35CD84008BD00BF00380240708501082E
:102F600008B5FFF7E7FF044B9B68C3F34233034AFE
:102F7000D35CD84008BD00BF00380240708501080E
:102F80000F2303600B4B9A6802F0030242609A68B9
:102F900002F0F00282609A6802F4E052C2609B681C
:102FA000DB0803F4E0530361034B1B6803F00703E2
:102FB0000B60704700380240003C02407047000040
:102FC00090F83D30DBB2012B37D1022380F83D3041
:102FD0000268D36843F00103D3600368194A93423F
:102FE00020D0B3F1804F1DD0A2F57C42934219D07E
:102FF00002F58062934215D002F58062934211D0AF
:1030000002F5784293420DD002F57052934209D0F6
:10301000A2F59432934205D01A6842F001021A6078
:10302000002070479A6802F00702062A07D01A6843
:1030300042F001021A600020704701207047002012
:10304000704700BF000001407047704770477047ED
:1030500010B5044603681A6912F0020F11D0DA683D
:1030600012F0020F0DD06FF002021A6101230377F4
:1030700003689B6913F0030F70D0FFF7E6FF00238E
:10308000237723681A6912F0040F12D0DA6812F05D
:10309000040F0ED06FF004021A6102232377236815
:1030A0009B6913F4407F5FD02046FFF7CEFF0023DB
:1030B000237723681A6912F0080F12D0DA6812F029
:1030C000080F0ED06FF008021A61042323772368DB
:1030D000DB6913F0030F4ED02046FFF7B6FF002345
:1030E000237723681A6912F0100F12D0DA6812F0F1
:1030F000100F0ED06FF010021A6108232377236897
:10310000DB6913F4407F3DD02046FFF79EFF00238C
:10311000237723681A6912F0010F03D0DA6812F0DE
:10312000010F36D123681A6912F0800F03D0DA68D4
:1031300012F0800F34D123681A6912F0400F03D0C7
:10314000DA6812F0400F32D123681A6912F0200FAA
:1031500003D0DA6812F0200F30D110BDFFF774FFF2
:103160002046FFF773FF8AE72046FFF76DFF2046F2
:10317000FFF76CFF9BE72046FFF766FF2046FFF74F
:1031800065FFACE72046FFF75FFF2046FFF75EFFD5
:10319000BDE76FF001021A612046FEF741F8C1E772
:1031A0006FF080021A61204600F0A1F8C3E76FF0CB
:1031B00040021A612046FFF74AFFC5E76FF0200280
:1031C0001A61204600F092F8C7E700000368304A11
:1031D000904212D0B0F1804F0FD0A2F57C429042C5
:1031E0000BD002F58062904207D002F580629042D7
:1031F00003D002F57842904203D123F070034A686D
:103200001343234A90422AD0B0F1804F27D0A2F531
:103210007C42904223D002F5806290421FD002F59A
:10322000806290421BD002F57842904217D002F59E
:103230007052904213D002F5806290420FD002F596
:10324000806290420BD0A2F59832904207D002F5EE
:103250008062904203D002F58062904203D123F451
:103260004073CA68134323F080034A691343036021
:103270008B68C3620B688362054B984203D003F5E9
:103280008063984201D10B69036301234361704756
:103290000000014040B310B5044690F83D30F3B152
:1032A000022384F83D30214651F8040BFFF78EFFCE
:1032B000012384F8463084F83E3084F83F3084F8A7
:1032C000403084F8413084F8423084F8433084F848
:1032D000443084F8453084F83D30002010BD80F83B
:1032E0003C30FFF76BFEDBE701207047704770470B
:1032F00038B504460268136923F44053C1680B4390
:10330000136183680269134342691343C2691A4314
:103310000168CB6823F4164323F00C031343CB60FE
:103320000268536923F4407381690B435361036856
:10333000314A934206D002F58062934202D0FFF7F1
:10334000FFFD01E0FFF70CFEE369B3F5004F29D064
:103350000021031849411B1841F10001C90041EA4D
:103360005371DB00181863684FEA83024FEA9373C6
:1033700041F10001FCF744FF204DA5FB003251094B
:10338000642303FB11031B013233A5FB03235B09F9
:1033900003F0F00202EB011203F00F032168134463
:1033A0008B6038BD0023021843EB0301121841F172
:1033B0000001C90041EA5271D200101841F1000128
:1033C000626892185B41FCF71BFF0C4DA5FB0032B5
:1033D0005109642303FB1103DB003233A5FB0323F4
:1033E0005B095A0002F4F87202EB011203F00703C2
:1033F000216813448B60D4E7001001401F85EB5116
:103400002DE9F84305460F4616469946DDF820801B
:103410002C68246837EA04030CBF4FF0010C4FF00E
:10342000000CB4452DD1B8F1FF3FF1D0B8F1000F39
:1034300005D0FEF77FFAA0EB09004045E8D92A68DD
:1034400002F10C0353E8003F23F4D0730C3242E83E
:1034500000310029F3D12A6802F1140353E8003F38
:1034600023F00103143242E800310029F3D1202374
:1034700085F83D3085F83E30002385F83C30032048
:1034800000E00020BDE8F88358B310B5044690F87A
:103490003D300BB3242384F83D302268D36823F4F5
:1034A0000053D3602046FFF723FF2268136923F4FB
:1034B000904313612268536923F02A035361226801
:1034C000D36843F40053D36000202064202384F8A1
:1034D0003D3084F83E3010BD80F83C30FEF7BAF83D
:1034E000D8E7012070472DE9F04182B01E4690F8E0
:1034F0003D30DBB2202B54D104460D4690460029C6
:1035000053D0002A53D090F83C30012B51D00123E6
:1035100080F83C3000230364212380F83D30FEF71F
:1035200009FA0746A4F82480A4F82680A368B3F516
:10353000805F05D04FF00008002384F83C3012E093
:10354000236913B14FF00008F6E7A8460025F3E71A
:1035500038F8023B2268C3F308035360E28C92B24E
:10356000013A92B2E284E38C9BB273B100963B467F
:10357000002280212046FFF743FFE0B9002DE7D06D
:1035800015F8012B23685A60E8E700963B460022B5
:1035900040212046FFF734FF78B9202384F83D30DE
:1035A00000E0022002B0BDE8F0810120FAE701202E
:1035B000F8E70220F6E70320F4E70320F2E7000033
:1035C00008B590F8313013F0010F00D108BD034861
:1035D0000EF004FF024806F021FFF7E7108601080D
:1035E000B00A002030B585B00021084605F054FD32
:1035F0001D49002008601D4A10601D4B18601D4CBD
:103600001D4D02951D4D01950090204609F090F842
:10361000204609F01FF994F8313013F0040F1ED042
:10362000204609F01DF9134D1549284609F09CF96B
:10363000144C2422002120460EF01CFE124B236065
:103640004FF4806363611023A361224629460F482B
:1036500000F088FB284606F0E1FE05B030BD0548C5
:1036600009F01CF9DFE700BFEC0A0020F00A002097
:10367000E80A0020B00A0020F58F0008213A00086F
:10368000C13500088C0A00201C860108953B000803
:103690000020704700B583B000230193054B1B78D1
:1036A0001BB1019803B05DF804FB01A90248FEF7C5
:1036B000DDFDF6E7540C0020980C002038B50546D7
:1036C0004FF0FF310B4B186800F0AFFC0028F7D12A
:1036D00001E0002CF4D02846FFF7DCFF0446002868
:1036E000F7D02B69294698470028F2D0204609F0E8
:1036F0008BFAEEE7580C002030B58DB00C46302523
:103700002A46002168460EF0B5FD2A46002168468B
:103710000EF0B0FD2246002303E01168F1B1013341
:10372000126822B3032B3CD8516803EB430C0CA85E
:1037300000EB8C0C4CF8301C51894CF82C1C002BE5
:10374000EBD003F1FF3C03EB43010DEB81010CEBEC
:103750004C0C00EB8C0C4CF8281CDEE703EB43010F
:103760000CA800EB8101002041F8280CD7E7238941
:103770000E4D6B60C5F808D06C63204609F0D0FB95
:1037800029460B48FEF737FD4FF0FF31094B18680B
:1037900000F04BFC0028F7D10548FEF7E6FD0020BD
:1037A00001E06FF00B000DB030BD00BF5C0C0020DD
:1037B000980C0020940C00202DE9F041A4B00446A0
:1037C0006422002102A80EF055FD5A4E5A4B336078
:1037D00000258DF8005080238DF80130E1238DF80D
:1037E00002308DF803508DF804508DF80550C6F85E
:1037F00004D04FF40003B360504BF360504B33617F
:103800004FF4C06373613046FEF7EAFB0746DFF80A
:1038100050813822294640460EF02CFD2123C8F85D
:1038200000304FF44003C8F81430464808F03CFE1E
:10383000062384F8303073681A7884F82A205A787E
:1038400084F82B209A7884F82C20DA7884F82D20BC
:103850001A7984F82E205B7984F82F3040F2DC53FB
:10386000238594F8313043F00A0384F831302A4636
:103870000121084600F07FFB334B18602A460121E6
:10388000084600F078FB314B1860242229461BA81B
:103890000EF0F0FC2E4B1B934FF4AF7320933023AC
:1038A00021931BAA21462B4800F05CFA2A4D2B4994
:1038B0002846FDF732FF2846FDF74EFFAFBB2846EE
:1038C000FDF7B1FF01281EDD042827D0052829D0E7
:1038D00003281FD04FF480464FF40067154D02A90E
:1038E0002846FEF749FE0897079602A92846FEF7E4
:1038F000BCFE2846FEF7D4FB204608F0B1FF204668
:1039000008F0ECFF13E0204609F010F8204608F01C
:10391000C5FF0CE04FF480460027DFE700264FF498
:103920000067DBE700263746D8E7FDF785FC24B0C3
:10393000BDE8F081980C002000800240940B00202C
:10394000F40A0020AC860108580C0020940C0020DA
:1039500024860108BD360008340C00200C0000202D
:103960005C0C002008B50146074808F0F3FD074B42
:103970001B78012B00D008BD044B00221A70044BA9
:10398000186800F086FBF6E7AC860108540C0020AE
:10399000580C002008B5FDF7CDFF08BD08B502485A
:1039A000FEF772FE002008BD980C002008B51346F3
:1039B0000A4601460348FEF78FFD00B908BD4FF0E7
:1039C000FF30FBE7980C002008B513460A46014675
:1039D0000348FEF7AAFD00B908BD4FF0FF30FBE732
:1039E000980C002008B5024B186800F052FB08BD87
:1039F000580C002008B5024B186800F04AFB08BDBF
:103A0000940C002008B5FEF779FE10F0800F00D16D
:103A100008BD024B186800F03CFBF9E7580C002089
:103A200010B5044670B1732384F83230742384F8DF
:103A30003330084B6361084BA3612046FFF7BCFE9F
:103A4000002010BD054B4FF4F272054905480EF0F9
:103A500063FCE8E7CDAD0008F93600082C860108C4
:103A6000748601088486010808B5FDF763FF08BD68
:103A7000F0B58DB000230793089309930A930B9335
:103A800002683F4B9A4201D00DB0F0BD0024019472
:103A9000A3F590431A6B42F000721A631A6B02F09E
:103AA00000720192019A02941A6B42F080621A63CA
:103AB0001A6B02F080620292029A03941A6B42F02F
:103AC00000621A631A6B02F000620392039A049474
:103AD0001A6B42F004021A631A6B02F00402049299
:103AE000049A05941A6B42F001021A631A6B02F0F1
:103AF00001020592059A06941A6B42F040021A637D
:103B00001B6B03F040030693069B322307930227A7
:103B1000089703260A960B250B9507A91948FEF767
:103B2000F1FD86230793089709940A960B9507A938
:103B30001548FEF7E7FD4FF4D04307930897099423
:103B40000A960B9507A91148FEF7DCFD22460521D0
:103B50003D20FDF71BFF3D20FDF750FF0C4D224699
:103B600004212846FEF7C0FE6420FDF7E9FE01228D
:103B700004212846FEF7B8FE6420FDF7E1FE83E746
:103B8000008002400008024000000240001802408D
:103B9000001002402DE9F0419AB004466422002151
:103BA00001A80EF067FB0026374635460BE0264895
:103BB000FEF7D2FA204608F071FE204608F0B6FE65
:103BC000642000F02EF92148FDF72DFE94F83130E5
:103BD00013F0040F01D00128E9DD13F0040FEFD139
:103BE0000128EDDD0238032816D8DFE800F01002C6
:103BF000070C00264FF4804701250DE04FF40066C6
:103C00000027012508E000263746012504E04FF48F
:103C100000664FF480470125002DD1D0DFF82880C1
:103C200001A94046FEF7A8FC0796069701A9404661
:103C3000FEF71BFD4046FEF733FA204608F010FE63
:103C4000204608F04BFEBBE7980C0020340C002007
:103C500010B582B004460E4808F04AFC88B103460D
:103C600000F1200222600B4A02614FF4C06201920F
:103C70002268009241220021084608F05BFF02B052
:103C800010BD054B01221A7000232360F7E700BF27
:103C9000AC86010865390008540C002030B4A2F14C
:103CA0002004002542F8205C22F8185C22F8163C1B
:103CB000026822B10A6814600C60026805E00460C2
:103CC000FAE71189194411811268002AF9D130BC30
:103CD000704708B508F098FF08BD08B54FF0E0231D
:103CE0001B6902F023F9012800D108BD00F03AFC5D
:103CF000FBE70000EFF305832BB9064B186828B9E2
:103D000001221A6070476FF0050070474FF0FF30D6
:103D1000704700BF585D0020EFF3058373B90A4B6D
:103D20001B68012B0DD110B50024084BDC77064B26
:103D300002221A6001F03CFE204610BD6FF0050023
:103D400070474FF0FF307047585D002000ED00E0F5
:103D500008B5EFF3058313B101F08EFE08BD01F045
:103D600085FEFBE7F0B587B000240594EFF30584EA
:103D70007CBB70B32AB31568936903B918235C1E22
:103D8000372C4AD8546814F0010F48D1566976B1DF
:103D90004FEA960C946834B1D768B7F5916F02D3A7
:103DA000176907B1C6B92CB14FF0FF340EE04FF0E0
:103DB000800CEFE7D4688CB9146994B14FF0FF34EC
:103DC00004E01546002418234FF0800C012C0AD083
:103DD000ACB1059807B0F0BD0124F7E74FF0FF3410
:103DE000F4E70024F2E714699268029201940093C8
:103DF0000B466246294601F069FD0590E9E705AAF0
:103E0000019200930B461FFA8CF2294601F09BFDAC
:103E10000128DED000230593DBE70020DAE700204D
:103E2000D8E708B5EFF3058333B908B9002008BD1A
:103E300001F032FF0020FAE76FF00500F7E770B5F8
:103E4000EFF30583002B3FD1044600B1436813F024
:103E5000010600D0012613F0080F38D14CB3A16839
:103E600011B1E3684F2B19D899B14FF0FF334BBB19
:103E70001EB3042000F0F4FF05462DB104B1246800
:103E80002146284601F0FCFAFDB1F6B145F00105E6
:103E90001BE0E3687BB14FF0FF33E8E726B1042075
:103EA00000F0E9FF0546E8E7012000F0E4FF0546E1
:103EB000E3E70023DBE70023D9E7012000F0D0FF90
:103EC0000546DAE70025DFE70025284670BD002516
:103ED000FBE7EFF30582C2B910B503460C4620F0AC
:103EE000010003F0010398B13BB101F035FA01285C
:103EF00011D094B16FF001000EE001F05AF90128E1
:103F00000ED07CB16FF0010006E06FF00500704745
:103F10006FF0030000E0002010BD6FF00200FBE72F
:103F20000020F9E76FF00200F6E7EFF30582B2B97F
:103F300008B5034620F0010003F0010390B12BB156
:103F400000F0A8FF012810D1002008BD00231A4668
:103F5000194600F0B5FE01280AD10020F5E76FF000
:103F6000050070476FF00300EFE76FF00200ECE729
:103F70006FF00200E9E770B582B0EFF30583002B24
:103F800049D10E461446002849D0884249D34AB147
:103F9000956815B1D3684F2B14D8002D43D1E36831
:103FA0000BB139E0002301280ED073BB314600F07D
:103FB00069FE054685B304B124682146284601F010
:103FC0005FFA29E00123EEE7B3B9032200210120C3
:103FD00000F011FE0546002DECD0002EEAD00023A3
:103FE0001A461946284600F06BFE0128E2D0284602
:103FF00001F070FA00250FE0A3680322009200226E
:10400000114600F0AEFD0546E5E7A268314600F036
:1040100016FE0546CEE70025284602B070BD0025F5
:10402000FAE70025F8E70025F6E720B310B582B0DF
:104030000C46EFF30583B3B101BB0021019101AA46
:1040400001F0AAF901281CD1019850B14FF0E023EA
:104050004FF08052C3F8042DBFF34F8FBFF36F8F23
:10406000002002B010BD01F0A4F801280CD06CB102
:104070006FF00100F5E76FF0030070476FF0030089
:10408000EFE76FF00200ECE70020EAE76FF00200D4
:10409000E7E720B300B583B0EFF30583A3B10023B6
:1040A000019301A900F07DFF01281BD1019898B16F
:1040B0004FF0E0234FF08052C3F8042DBFF34F8F31
:1040C000BFF36F8F002007E000231A46194600F067
:1040D000F7FD012809D1002003B05DF804FB6FF063
:1040E000030070476FF00200F6E76FF00200F3E79D
:1040F000EFF305834BB910B5044648B101F0D4F98C
:10410000204601F0E7F9002010BD6FF00500704770
:104110006FF00300F8E770B582B0EFF30583002B72
:104120003AD1144600283BD000293BD06AB39368AB
:104130004BB1D2684F2A06D9226922B101FB00F5A2
:104140006669AE421BD273B14FF0FF3363BB0022EE
:1041500000F051FD054605B304B124682146284608
:1041600001F08EF919E0E3688BB9236913B14FF0C0
:10417000FF33EBE763696BB14FF0FF33E6E70025F0
:10418000009500F0EEFC0546E5E70023DEE74FF082
:10419000FF33DBE70023D9E70025284602B070BDD6
:1041A0000025FAE70025F8E70025F6E710B582B00C
:1041B0001C46EFF30583C3B118B329B33CBB0023FE
:1041C000019301AA00F086FE012823D1019850B185
:1041D0004FF0E0234FF08052C3F8042DBFF34F8F10
:1041E000BFF36F8F002002B010BDB0B1C1B100238A
:1041F000224600F065FD012815D0B4B16FF0010032
:10420000F1E76FF00300EEE76FF00300EBE76FF00C
:104210000300E8E76FF00200E5E76FF00300E2E774
:104220006FF00300DFE70020DDE76FF00200DAE760
:1042300010B582B01C46EFF30583C3B110B321B3B0
:1042400034BB0023019301AA01F0A6F8012822D172
:10425000019850B14FF0E0234FF08052C3F8042D85
:10426000BFF34F8FBFF36F8F002002B010BDA8B116
:10427000B9B1224600F0EEFE012815D0B4B16FF0BE
:104280000100F2E76FF00300EFE76FF00300ECE7E7
:104290006FF00300E9E76FF00200E6E76FF003005C
:1042A000E3E76FF00300E0E70020DEE76FF00200D5
:1042B000DBE748B108B5EFF3058212B101F0D3F89E
:1042C00008BD01F0BDF8FBE700207047EFF3058360
:1042D0004BB910B5044648B101F0E6F8204601F0AC
:1042E000F9F8002010BD6FF0050070476FF0030073
:1042F000F8E70000034B0360034B0B60802313605F
:10430000704700BFD0580020D0560020034B0360F8
:10431000034B0B604FF480731360704760610020A3
:104320005C5D002000F1080343604FF0FF328260C3
:10433000C36003610023036070470023036170477B
:1043400043684B609A688A605160996008610368AD
:1043500001330360704730B40D68B5F1FF3F11D0F1
:1043600000F108031C465B681A68AA42FAD9636820
:104370004B6099608C606160086103680133036081
:1043800030BC70470469F2E70369416882688A605B
:10439000416851605A68824206D0002202611A6860
:1043A000013A1A601868704782685A60F5E70000A1
:1043B00082B0002301930D4B1B68B3F1FF3F08D07F
:1043C0004FF0500383F31188BFF36F8FBFF34F8F0C
:1043D000FEE74FF0500383F31188BFF36F8FBFF3F5
:1043E0004F8F019B002BFCD002B0704720000020B3
:1043F00008480068006880F308884FF0000080F3E8
:10440000148862B661B6BFF34F8FBFF36F8F00DFC2
:1044100000BF000008ED00E0DFF80C00016841F487
:10442000700101607047000088ED00E04FF080737C
:1044300040F8043C21F0010140F8081C054B40F80D
:104440000C3C40F8202C6FF0020340F8243C443828
:10445000704700BFB14300080000000000000000EA
:10446000074B19680868B0E8F04F80F30988BFF37C
:104470006F8F4FF0000080F311887047AFF300801A
:1044800050A200204FF0500383F31188BFF36F8FC9
:10449000BFF34F8F0B4A136801331360012B00D019
:1044A00070474FF0E023D3F8043D13F0FF0FF7D02F
:1044B0004FF0500383F31188BFF36F8FBFF34F8F1B
:1044C000FEE700BF20000020094B1B6843B94FF0F6
:1044D000500383F31188BFF36F8FBFF34F8FFEE755
:1044E000013B034A13600BB983F31188704700BF87
:1044F000200000200000000000000000000000007C
:10450000EFF30980BFF36F8F154B1A681EF0100F81
:1045100008BF20ED108A20E9F04F10602DE9090056
:104520004FF0500080F31188BFF34F8FBFF36F8FB0
:1045300001F0D8FB4FF0000080F3118809BC196826
:104540000868B0E8F04F1EF0100F08BFB0EC108AFA
:1045500080F30988BFF36F8F704700BFAFF300800F
:1045600050A2002008B54FF0500383F31188BFF329
:104570006F8FBFF34F8F01F087FA28B14FF0E02320
:104580004FF08052C3F8042D002383F3118808BD37
:104590004FF0E022002313619361054B1B6805492E
:1045A000A1FB03139B09013B536107231361704770
:1045B00000000020D34D62104FF0E023D3F8002D0F
:1045C0003D4B9A421CD04FF0E023D3F8002D3B4BDB
:1045D0009A421ED030B583B0394B1A78D2B20192CC
:1045E000FF221A701B78DBB28DF803309DF8033080
:1045F00003F05003334A1370334B07221A601BE059
:104600004FF0500383F31188BFF36F8FBFF34F8FC9
:10461000FEE74FF0500383F31188BFF36F8FBFF3B2
:104620004F8FFEE7284A1368013B13609DF8033063
:104630005B00DBB28DF803309DF8033013F0800F80
:10464000F0D1214B1B68032B08D04FF0500383F3AC
:104650001188BFF36F8FBFF34F8FFEE71B021A4A1B
:10466000136003F4E0631360019BDBB2144A137020
:104670004FF0E024D4F8203D43F47003C4F8203D0B
:10468000D4F8203D43F07043C4F8203DFFF780FF8D
:1046900000250E4B1D60FFF7BFFED4F8343F43F0FA
:1046A0004043C4F8343FFFF7A3FE01F01BFBFFF7C4
:1046B0007FFE284603B030BD71C20F4170C20F416A
:1046C00000E400E0E8650020EC6500202000002008
:1046D000EFF305830F2B0FD9114A9B5CDBB2114A14
:1046E00012789A4208D94FF0500383F31188BFF330
:1046F0006F8FBFF34F8FFEE74FF0E023D3F80C3DF1
:1047000003F4E063084A1268934208D94FF050035B
:1047100083F31188BFF36F8FBFF34F8FFEE77047AE
:10472000F0E300E0E8650020EC650020124A12F09A
:10473000070F1ED0D11D21F00701C1F5705313449E
:104740000A460E480260002141601344083B23F0F2
:1047500007030B48036059601960991A5160136090
:10476000084B1960084B1960084B4FF000421A6063
:1047700070474FF47053E4E7F465002008A200206E
:10478000F0650020FCA10020F8A10020F4A1002089
:10479000164B1A461B688342FBD3516802EB010C8F
:1047A000844509D0416800EB010C634509D00360E2
:1047B000904219D010607047406801445160104623
:1047C000F0E710B40A4C2468A3420BD05B6819448C
:1047D000416013681B680360904200D010605DF870
:1047E000044B70470460F7E7704700BF08A2002041
:1047F000F065002070B5054601F030F9364B1B68B6
:10480000A3B1364B1B681D424ED135B1083515F0AA
:10481000070F02D025F007050835002D46D0304B94
:104820001B68AB4251D32F4A146804E0FFF77EFFA8
:10483000E7E722461C466368AB4202D22368002B9E
:10484000F7D1254B1B68A34241D016680836236870
:10485000136063685B1B102B10D9601910F0070FF1
:1048600008D04FF0500383F31188BFF36F8FBFF36D
:104870004F8FFEE743606560FFF78AFF6268184963
:104880000B689B1A0B60184909688B4201D21649C4
:104890000B60124B1B681343636000232360134AB1
:1048A00013680133136002E0002600E0002601F0E7
:1048B00077F916F0070F0CD04FF0500383F31188EF
:1048C000BFF36F8FBFF34F8FFEE70026EFE70026A1
:1048D000EDE7304670BD00BFF0650020F4A1002078
:1048E000F8A1002008A20020FCA1002000A20020C6
:1048F000002834D038B50446A0F1080550F8043C2F
:10490000174A1268134208D14FF0500383F31188FD
:10491000BFF36F8FBFF34F8FFEE750F8081C41B114
:104920004FF0500383F31188BFF36F8FBFF34F8FA6
:10493000FEE723EA020340F8043C01F08FF854F844
:10494000041C084A13680B4413602846FFF720FF35
:10495000054A13680133136001F022F938BD70472E
:10496000F4A10020F8A1002004A200200346406A20
:1049700018B11B6B1868C0F13800704710B50446B9
:10498000FFF780FDA26BE36B9A4204D00024FFF78F
:104990009BFD204610BD0124F9E710B50446FFF742
:1049A00071FDA36B23B90124FFF78EFD204610BDD6
:1049B0000024F9E770B504461546866B026C5AB9B7
:1049C00003681BB100200136A66370BD806801F04A
:1049D00009FB0023A360F6E76DB94068FBF792FD81
:1049E000226C636813446360A268934219D32368FE
:1049F00063602846E7E7C068FBF784FD226C5142FC
:104A0000E3689B1AE3602268934202D2A3680B44D6
:104A1000E360022D01D00020D5E726B1013E002041
:104A2000D1E72846CFE70020CDE70346026C6AB104
:104A300010B50846D9681144D9609C68A14201D3D9
:104A40001968D960D968FBF75DFD10BD704738B5AE
:104A50000546FFF717FD95F8454064B201E0013CBB
:104A600064B2002C0ADD6B6A43B105F1240001F049
:104A7000BDF90028F3D001F04DFAF0E7FF2385F8E7
:104A80004530FFF721FDFFF7FDFC95F8444064B287
:104A900001E0013C64B2002C0ADD2B6943B105F151
:104AA000100001F0A3F90028F3D001F033FAF0E789
:104AB000FF2385F84430FFF707FD38BD38B5E0B176
:104AC0000D460446FFF7DEFC2368E26B216C01FB18
:104AD0000230A0600020A0636360013A02FB013352
:104AE000E360FF2384F8443084F84530FDB923693E
:104AF00063B9FFF7E9FC012038BD4FF0500383F3A1
:104B00001188BFF36F8FBFF34F8FFEE704F11000E2
:104B100001F06CF90028ECD04FF0E0234FF0805208
:104B2000C3F8042DBFF34F8FBFF36F8FE1E704F19C
:104B30001000FFF7F7FB04F12400FFF7F3FBD8E7C1
:104B400038B51D46049C0B4649B92460E0632364D4
:104B500001212046FFF7B2FF84F84C5038BD226097
:104B6000F4E740B94FF0500383F31188BFF36F8F20
:104B7000BFF34F8FFEE710B584B01C46844653B197
:104B800092B189B94FF0500383F31188BFF36F8F4F
:104B9000BFF34F8FFEE74FF0500383F31188BFF34D
:104BA0006F8FBFF34F8FFEE76AB150230393039BD0
:104BB000502B13D04FF0500383F31188BFF36F8F46
:104BC000BFF34F8FFEE70029EFD04FF0500383F380
:104BD0001188BFF36F8FBFF34F8FFEE7039B012355
:104BE00084F8463000949DF818306046FFF7A8FF1F
:104BF000204604B010BD40B94FF0500383F3118834
:104C0000BFF36F8FBFF34F8FFEE7F0B583B00D4654
:104C10001446064601FB00F05030FFF7EBFD074657
:104C200050B1002380F846300090234600F1500236
:104C300029463046FFF784FF384603B0F0BD40B93F
:104C40004FF0500383F31188BFF36F8FBFF34F8F83
:104C5000FEE710B582B00C46884208D24FF05003F0
:104C600083F31188BFF36F8FBFF34F8FFEE70223EB
:104C70000093134600221146FFF773FF00B18463CF
:104C800002B010BD40B94FF0500383F31188BFF359
:104C90006F8FBFF34F8FFEE710B50C46884208D2E6
:104CA0004FF0500383F31188BFF36F8FBFF34F8F23
:104CB000FEE702220021FFF79EFF00B1846310BDD2
:104CC000F0B585B0019288B10F461D460446B1B1DA
:104CD000022D20D1E36B012B1DD04FF0500383F345
:104CE0001188BFF36F8FBFF34F8FFEE74FF0500374
:104CF00083F31188BFF36F8FBFF34F8FFEE7036C11
:104D0000002BE5D04FF0500383F31188BFF36F8F72
:104D1000BFF34F8FFEE701F009F9064658B9019B32
:104D2000002B48D04FF0500383F31188BFF36F8FEF
:104D3000BFF34F8FFEE700263DE02A463946204666
:104D4000FFF738FE636A7BB948B14FF0E0234FF0BC
:104D50008052C3F8042DBFF34F8FBFF36F8FFFF75F
:104D6000B3FB012005B0F0BD04F1240001F03EF8D2
:104D70000028F4D04FF0E0234FF08052C3F8042D08
:104D8000BFF34F8FBFF36F8FE9E7FFF79DFB002065
:104D9000E8E702A801F070F8012619E0002384F882
:104DA000443021E0002384F8453023E02046FFF71B
:104DB0004EFE00F0F5FEFFF765FBA26BE36B9A4237
:104DC000BBD3022DB9D0019B002BDED0002EE0D04A
:104DD000FFF77AFB00F042FEFFF754FB94F8442003
:104DE00052B2B2F1FF3FD9D094F8452052B2B2F19D
:104DF000FF3FD7D0FFF768FB01A902A801F048F8F0
:104E0000D8B92046FFF7BAFD0028CFD0019904F1A8
:104E1000100000F0B7FF2046FFF719FE00F0C0FEBB
:104E20000028C8D14FF0E0234FF08052C3F8042D82
:104E3000BFF34F8FBFF36F8FBDE72046FFF707FE2D
:104E400000F0AEFE00208DE748B108B5002181607A
:104E50000160C1600B460A46FFF732FF08BD70478C
:104E600010B5024600210120FFF7C5FE0446FFF7FA
:104E7000EBFF204610BD10B582B00B46009000221B
:104E800011460120FFF76DFE0446FFF7DDFF2046C7
:104E900002B010BD38B538B10446856801F040F85D
:104EA00085420AD0002038BD4FF0500383F31188AB
:104EB000BFF36F8FBFF34F8FFEE7E368013BE36003
:104EC0000BB10120EFE71A4619462046FFF7F8FE1E
:104ED0000120E8E72DE9F84390B10F4616461C463D
:104EE0000546B1B1022C20D1EB6B012B1DD04FF048
:104EF000500383F31188BFF36F8FBFF34F8FFEE72B
:104F00004FF0500383F31188BFF36F8FBFF34F8FC0
:104F1000FEE7036C002BE5D04FF0500383F31188BC
:104F2000BFF36F8FBFF34F8FFEE7FFF7D1FBEFF3B8
:104F300011894FF0500383F31188BFF36F8FBFF3D4
:104F40004F8FAA6BEB6B9A4206D3022C04D0002041
:104F500089F31188BDE8F88395F845804FFA88F801
:104F6000AB6B224639462846FFF724FDB8F1FF3FD8
:104F700006D008F101035BB285F845300120E7E770
:104F80006B6A0BB90120E3E705F1240000F02EFF66
:104F900018B126B101203060DAE70120D8E70120FE
:104FA000D6E768B170B50C460546036C8BB14FF07F
:104FB000500383F31188BFF36F8FBFF34F8FFEE76A
:104FC0004FF0500383F31188BFF36F8FBFF34F8F00
:104FD000FEE70368EBB1FFF77BFBEFF311864FF0C1
:104FE000500383F31188BFF36F8FBFF34F8FAA6B0A
:104FF000EB6B934226D995F845305BB20132AA6338
:10500000B3F1FF3F11D001335BB285F84530012089
:1050100019E08368002BDED04FF0500383F3118832
:10502000BFF36F8FBFF34F8FFEE76B6A0BB90120A1
:1050300009E005F1240000F0D9FE38B144B10120A7
:10504000206000E0002086F3118870BD0120FAE79F
:105050000120F8E7F0B585B0019290B10F46044603
:10506000C1B100F063FF064600BB019B002B5ED080
:105070004FF0500383F31188BFF36F8FBFF34F8F4F
:10508000FEE74FF0500383F31188BFF36F8FBFF338
:105090004F8FFEE7036C002BE3D04FF0500383F3F8
:1050A0001188BFF36F8FBFF34F8FFEE700263EE0FE
:1050B00039462046FFF7B9FC013DA563236923B9B2
:1050C000FFF702FA012005B0F0BD04F1100000F076
:1050D0008DFE0028F4D04FF0E0234FF08052C3F84B
:1050E000042DBFF34F8FBFF36F8FE9E7FFF7ECF9A4
:1050F0000020E8E702A800F0BFFE012621E000231F
:1051000084F8443029E0002384F845302BE0204621
:10511000FFF79DFC00F044FD09E02046FFF797FCF7
:1051200000F03EFD2046FFF738FC00283FD1FFF796
:10513000A9F9A56B002DBBD1019B002BD6D0002E69
:10514000D8D0FFF7C1F900F089FCFFF79BF994F87C
:1051500044305BB2B3F1FF3FD1D094F845305BB23D
:10516000B3F1FF3FCFD0FFF7AFF901A902A800F0DC
:105170008FFE0028D1D12046FFF70FFC0028C6D0B3
:10518000019904F1240000F0FDFD2046FFF75FFCCB
:1051900000F006FD0028CAD14FF0E0234FF0805206
:1051A000C3F8042DBFF34F8FBFF36F8FBFE700200D
:1051B00089E770B584B0019158B10446036C8BB196
:1051C0004FF0500383F31188BFF36F8FBFF34F8FFE
:1051D000FEE74FF0500383F31188BFF36F8FBFF3E7
:1051E0004F8FFEE700F0A2FE054650B9019B5BB170
:1051F0004FF0500383F31188BFF36F8FBFF34F8FCE
:10520000FEE70026354655E0064653E0013BA36322
:1052100023683BB123694BB9FFF756F901263046A5
:1052200004B070BD00F076FFA060F3E704F1100059
:1052300000F0DCFD0028EFD04FF0E0234FF080526B
:10524000C3F8042DBFF34F8FBFF36F8FE4E746B170
:105250004FF0500383F31188BFF36F8FBFF34F8F6D
:10526000FEE7FFF731F9DAE702A800F005FE0125B5
:105270002AE0002384F8443032E0002384F84530EB
:1052800034E0FFF7FFF8A06800F060FE0646FFF785
:105290001BF93BE02046FFF7DAFB00F081FC09E058
:1052A0002046FFF7D4FB00F07BFC2046FFF775FBA0
:1052B000002842D1FFF7E6F8A36B002BA6D1019B93
:1052C000002BC4D0002DCFD0FFF7FEF800F0C6FBB6
:1052D000FFF7D8F894F844305BB2B3F1FF3FC8D081
:1052E00094F845305BB2B3F1FF3FC6D0FFF7ECF85E
:1052F00001A902A800F0CCFD0028D1D12046FFF77B
:105300004CFB0028C6D02368002BBAD0019904F1C9
:10531000240000F037FD2046FFF799FB00F040FC29
:105320000028C7D14FF0E0234FF08052C3F8042D7E
:10533000BFF34F8FBFF36F8FBCE70EB900266EE748
:10534000FFF7A0F82046FFF711FB0146A06800F028
:1053500091FEFFF7B9F8F1E780B170B50C4605464C
:10536000866800F0DDFD864211D021462846FFF711
:1053700020FF80B1EB680133EB600CE04FF050038D
:1053800083F31188BFF36F8FBFF34F8FFEE7EB6896
:105390000133EB60012070BD2DE9F843B0B10D463B
:1053A00016460446D9B1FFF793F9EFF311884FF091
:1053B000500383F31188BFF36F8FBFF34F8FA76B39
:1053C000CFB9002088F31188BDE8F8834FF050036F
:1053D00083F31188BFF36F8FBFF34F8FFEE7036C2A
:1053E000002BE0D04FF0500383F31188BFF36F8F91
:1053F000BFF34F8FFEE794F844904FFA89F929469E
:105400002046FFF712FB013FA763B9F1FF3F06D02B
:1054100009F101035BB284F844300120D2E723692B
:105420000BB90120CEE704F1100000F0DFFC18B149
:1054300026B101203060C5E70120C3E70120C1E7A4
:1054400040B110B50446FFF71DF8A46BFFF73CF818
:10545000204610BD4FF0500383F31188BFF36F8FC8
:10546000BFF34F8FFEE708B1806B70474FF05003DA
:1054700083F31188BFF36F8FBFF34F8FFEE70000F8
:105480000023072B0CD8074A52F833200AB1013306
:10549000F7E7044A42F8331002EBC3035860704741
:1054A000704700BF10A200200023072B0FD8084A26
:1054B00002EBC3025268824201D00133F5E7044A8D
:1054C000002142F8331002EBC30359607047704764
:1054D00010A2002038B110B50446FFF7E5FF94F89C
:1054E00046304BB110BD4FF0500383F31188BFF32A
:1054F0006F8FBFF34F8FFEE72046FFF7F9F9F1E713
:1055000070B504460D461646FEF7BCFF94F84430CD
:105510005BB2B3F1FF3F0DD094F845305BB2B3F10D
:10552000FF3F0BD0FEF7D0FFA36B5BB12046FFF728
:105530008EFA70BD002384F84430EDE7002384F830
:105540004530EFE73246294604F1240000F032FCF2
:10555000ECE70000084B1B681B6823B9074B4FF0B2
:10556000FF321A607047044B1B68DB68DB685A68BF
:10557000024B1A60704700BF54A20020FCA6002016
:105580002DE9F04780460D4617469946089EDDF8FE
:1055900024A00A9C9200A521206B0CF06BFE236BCB
:1055A00007F18042013A03EB820727F00707002D3D
:1055B00065D04FF0000CBCF10F0F0BD815F80C2084
:1055C00004EB0C0383F8342015F80C3013B10CF104
:1055D000010CF0E7002384F84330372E00D937263A
:1055E000E662E66400252565201DFEF7A6FE04F1AF
:1055F0001800FEF7A2FE2461C6F13806A6616462B7
:10560000C4F8805484F884544FF48562294604F128
:1056100058000CF02FFE04F55173E36504F56B732D
:10562000236604F21443636601220023C4E9402385
:1056300043F20E33A4F808314AF6CD33A4F80A3108
:1056400041F23423A4F80C314EF26D63A4F80E310C
:105650004DF6EC63A4F810310523A4F812310B23A6
:10566000A4F814314A4641463846FEF7DFFE206072
:10567000BAF1000F01D0CAF80040BDE8F08700235E
:1056800084F83430A9E7000038B5002407E004EBC3
:10569000840293000E481844FEF744FE0134372C70
:1056A000F5D90C4D2846FEF73DFE0B4C2046FEF783
:1056B00039FE0A48FEF736FE0948FEF733FE094870
:1056C000FEF730FE084B1D60084B1C6038BD00BF64
:1056D0005CA20020D0A60020E4A6002008A700209D
:1056E00034A7002020A7002054A2002058A20020A8
:1056F00010B50446FEF7C6FE224A13680133136054
:10570000214B1B685BB1214B1B686BB91E4B1B689F
:10571000DA6AE36A9A4207D81B4B1C6004E01A4B12
:105720001C601368012B29D0194A136801331360D8
:105730006364E06A174B1B68984201D9154B1860E7
:1057400000EB8000211D144B03EB8000FEF7F8FDF9
:10575000FEF7BAFE0D4B1B687BB10B4B1B68DA6A78
:10576000E36A9A4209D24FF0E0234FF08052C3F827
:10577000042DBFF34F8FBFF36F8F10BDFFF784FF72
:10578000D2E700BFBCA6002050A200201CA700202A
:10579000C8A60020CCA600205CA2002010B50446BC
:1057A00058300CF065FE94F8853463B1012B11D0AC
:1057B000022B0ED04FF0500383F31188BFF36F8F8D
:1057C000BFF34F8FFEE7206BFFF792F82046FFF7FD
:1057D0008FF810BD2046FFF78BF8FAE70F4B1B68D8
:1057E000D3B110B5FEF74EFE0D4BDB68DC68201D13
:1057F000FEF7CAFD0B4A1368013B1360074A1368A2
:10580000013B1360FEF760FE2046FFF7C7FF034B26
:105810001B68002BE6D110BD704700BFC0A600205A
:1058200034A70020BCA6002008B5FFF7D7FF074B20
:105830001B68012BF9D94FF0E0234FF08052C3F8D9
:10584000042DBFF34F8FBFF36F8FEEE75CA20020F4
:1058500070B504460D46174B1E68174B1868043088
:10586000FEF792FDB4F1FF3F0DD03444124B1B689C
:105870005C60A64210D9114B18680F4B19680431AF
:10588000FEF769FD70BD002DEFD00B4B1968043198
:105890000B48FEF755FDF5E70A4B1868064B1968EB
:1058A0000431FEF758FD084B1B68A342EAD9064BAA
:1058B0001C60E7E748A7002050A2002058A2002063
:1058C00020A7002054A20020FCA6002030B587B0FD
:1058D0000B9C8CB10C9DC5B14FF491650495049D52
:1058E000B5F5916F1AD04FF0500383F31188BFF3D1
:1058F0006F8FBFF34F8FFEE74FF0500383F3118894
:10590000BFF36F8FBFF34F8FFEE74FF0500383F36A
:105910001188BFF36F8FBFF34F8FFEE7049D0C9D7F
:105920002C63022485F8854400240394029505AC79
:1059300001940A9C0094FFF723FE0C98FFF7D8FE11
:10594000059807B030BD2DE9F04385B0074688467D
:1059500014461E469000FEF74DFF08B381464FF4F3
:105960009160FEF747FF0546B0B1C0F83090E5B151
:10597000002385F88534039302950D9B01930C9BBE
:1059800000933346224641463846FFF7F9FD284644
:10599000FFF7AEFE012005E04846FEF7A9FFE6E767
:1059A0004FF0FF3005B0BDE8F0834FF0FF30F9E76E
:1059B00010B588B000240594069407AA06A905A886
:1059C000FEF798FC059B0293069B019300942346E7
:1059D000079A1A491A48FFF779FF1A4B186040B125
:1059E00000F012FC012806D0B0F1FF3F1DD008B036
:1059F00010BD0020F6E74FF0500383F31188BFF38A
:105A00006F8FBFF34F8F104B1B6858330F4A1360D3
:105A10000F4B4FF0FF321A600E4B01221A600E4BF3
:105A200000221A60FEF7C8FDE1E74FF0500383F350
:105A30001188BFF36F8FBFF34F8FFEE7B886010861
:105A400029580008F8A6002050A200202C000020B1
:105A5000FCA600201CA7002048A70020024A1368CB
:105A600001331360704700BFC4A60020014B1868C3
:105A7000704700BF48A7002008B5FEF729FE014B7C
:105A8000186808BD48A70020F8B53A4B1B68002BE2
:105A900069D1394B1D6801351D60C5B9374B1B688D
:105AA0001B6843B14FF0500383F31188BFF36F8F2E
:105AB000BFF34F8FFEE7314A1168314B1868106011
:105AC0001960304A136801331360FFF743FD2E4B12
:105AD0001B68AB423DD900272C4B1B68DB6A03EBEC
:105AE00083039A002A4B9B58012B00D90127294B8D
:105AF0001B68002B3CD001273AE001271F4B1B6895
:105B00001B6843B31D4B1B68DB68DC6863689D4200
